:020000040800F2
:100000005807002089010008F1080008830500084E
:10001000ED080008310200086F0D00080000000024
:10002000000000000000000000000000130B0008AA
:10003000350200080000000079090008250C0008BE
:10004000A3010008A3010008A3010008A301000800
:10005000A3010008A3010008A3010008A3010008F0
:10006000A3010008A3010008A3010008A3010008E0
:10007000A3010008A3010008A3010008A3010008D0
:10008000A3010008A3010008A3010008A3010008C0
:10009000A3010008A3010008A3010008A3010008B0
:1000A000A3010008A3010008A3010008A3010008A0
:1000B000A3010008A3010008A3010008A301000890
:1000C000A3010008A3010008A3010008A301000880
:1000D000A3010008890C0008A3010008A30100087F
:1000E00039020008A3010008A301000800F002F88B
:1000F00000F03AF80AA090E8000C82448344AAF188
:100100000107DA4501D100F02FF8AFF2090EBAE885
:100110000F0013F0010F18BFFB1A43F0010318473B
:1001200020EF000040EF0000103A24BF78C878C1EB
:10013000FAD8520724BF30C830C144BF04680C60ED
:10014000704700000023002400250026103A28BF35
:1001500078C1FBD8520728BF30C148BF0B60704739
:100160001FB51FBD10B510BD00F033F81146FFF7E5
:10017000F7FF00F065FE00F051F803B4FFF7F2FF5F
:1001800003BC00F0F6FD000009488047094800471D
:10019000FEE7FEE7FEE7FEE7FEE7FEE7FEE7FEE737
:1001A000FEE7FEE704480549054A064B7047000094
:1001B000290C0008ED000008580100205807002015
:1001C000580300205803002070477047704770475D
:1001D0007047754600F028F8AE460500694653465C
:1001E00020F00700854618B020B5FFF7DBFFBDE81B
:1001F00020404FF000064FF000074FF000084FF08E
:10020000000B21F00701AC46ACE8C009ACE8C0091E
:10021000ACE8C009ACE8C0098D4670470446AFF3AE
:1002200000802046FFF7A9FF00487047F800002033
:1002300000BFFEE77047000010B54FF4804000F0AB
:100240006BF880B10A2000F0B9FD1148006828B9A8
:10025000A0231A465021282000F02CFE4FF48040A5
:1002600000F054F813E04FF4004000F055F870B17E
:100270000A2000F0A3FD0648001D006818B94FF6DB
:10028000FF7000F081F94FF4004000F03FF810BD1E
:10029000380122420EB50121084600F06FFB0E2105
:1002A000022000F0BFF84FF48040019000208DF84C
:1002B00008000C208DF8090001208DF80A0001A823
:1002C00000F03EF80F21022000F0ACF84FF400409F
:1002D000019000208DF808000C208DF80900012005
:1002E0008DF80A0001A800F02BF828208DF80000F6
:1002F00002208DF8010000208DF8020001208DF809
:100300000300684600F0F6FA0EBD000001490860DF
:100310007047000014040140014600200022074BF2
:100320001B6803EA0102054B14331B680B4013B131
:100330000AB1012000E000207047000000040140E5
:10034000002123498279002A3AD00A4612680368BC
:100350009A430B461A600A1D126803689A430B1DE4
:100360001A60027911440A6803681A430A60184A3D
:100370000832126803689A43154B08331A601A1D35
:10038000126803689A43124B0C331A604279102AA0
:100390000ED11A1F126803681A430D4B08331A60F6
:1003A0001A1D126803681A43094B0C331A600DE0DA
:1003B0000749427911440A6803681A430A6005E054
:1003C000027911440A6803689A430A607047000082
:1003D0000004014008B50121102000F0CFFA4FF4CD
:1003E0000050ADF8000003208DF8020010208DF8B9
:1003F00003006946094800F035F80121042000F0A7
:10040000BDFA0420ADF800006946054800F02AF85E
:100410000421034800F0B1F808BD000000100140BD
:100420000008014030B500228B071C0F0F2303FA90
:1004300004F20B4B8C1053F824309343084C8D106E
:1004400044F8253023468C1053F824308C07240FB1
:1004500000FA04F42343024C8D1044F8253030BDDB
:10046000080001402DE9F041024600250026002049
:1004700000230024002791F803C00CF00F0591F829
:1004800003C00CF0100CBCF1000F03D091F802C0B7
:100490004CEA050591F800C0BCF1000F31D014689A
:1004A00000202BE04FF0010C0CFA00F3B1F800C073
:1004B0000CEA03069E4220D183004FF00F0C0CFA89
:1004C00003F7BC4305FA03FC4CEA040491F803C0AB
:1004D000BCF1280F06D14FF0010C0CFA00FCC2F859
:1004E00014C00AE091F803C0BCF1480F05D14FF0E9
:1004F000010C0CFA00FCC2F810C0401C0828D1D333
:100500001460B1F800C0BCF1FF0F34DD5468002066
:100510002EE000F1080C4FF0010808FA0CF3B1F8D6
:1005200000C00CEA03069E4221D183004FF00F0C5D
:100530000CFA03F7BC4305FA03FC4CEA040491F8F7
:1005400003C0BCF1280F05D100F1080C08FA0CF823
:10055000C2F8148091F803C0BCF1480F07D100F134
:10056000080C4FF0010808FA0CF8C2F81080401C83
:100570000828CED35460BDE8F08141617047016125
:10058000704700BFFEE7000070B50646002409482A
:100590000588408845430021084600F039F900F0FD
:1005A0009DF900BF03E0304600F04CF9641CAC42FA
:1005B000F9D370BDEC00002010B500209049086010
:1005C000322000F0FBFB01208E49C1F8840132206B
:1005D00000F0F4FB08218C48FFF7CFFF142000F057
:1005E000EDFB08218848FFF7CAFF142000F0E6FB66
:1005F000F020864908804FF4A07048802C20887134
:100600002A20C8712B200872CF2000F04FF900205B
:1006100000F034F9D92000F031F9302000F02EF943
:10062000ED2000F043F9642000F028F9032000F0E9
:1006300025F9122000F022F9812000F01FF9E820AE
:1006400000F034F9852000F019F9102000F016F9B7
:10065000782000F013F9CB2000F028F9392000F0C1
:100660000DF92C2000F00AF9002000F007F93420E1
:1006700000F004F9022000F001F9F72000F016F96B
:10068000202000F0FBF8EA2000F010F9002000F034
:10069000F5F8002000F0F2F8C02000F007F9212062
:1006A00000F0ECF8C12000F001F9122000F0E6F8AB
:1006B000C52000F0FBF8322000F0E0F83C2000F00C
:1006C000DDF8C72000F0F2F8C12000F0D7F836209E
:1006D00000F0ECF8C82000F0D1F83A2000F0E6F87D
:1006E000552000F0CBF8B12000F0E0F8002000F039
:1006F000C5F8182000F0C2F8B62000F0D7F80A209C
:1007000000F0BCF8A22000F0B9F8F22000F0CEF81A
:10071000002000F0B3F8262000F0C8F8012000F017
:10072000ADF8E02000F0C2F80F2000F0A7F820207C
:1007300000F0A4F81E2000F0A1F8092000F09EF8B7
:10074000122000F09BF80B2000F098F8502000F0E9
:1007500095F8BA2000F092F8442000F08FF80920B4
:1007600000F08CF8142000F089F8052000F086F8DD
:10077000232000F083F8212000F080F8002000F012
:100780007DF8E12000F092F8002000F077F81920C1
:1007900000F074F8192000F071F8002000F06EF8F5
:1007A000122000F06BF8072000F068F82D2000F010
:1007B00065F8282000F062F83F2000F05FF8022082
:1007C00000F05CF80A2000F059F8082000F056F814
:1007D000252000F053F82D2000F050F80F2000F0F5
:1007E0004DF8112000F062F8782000F0E7FA292097
:1007F00000F05CF84FF6FF70FFF7C6FE10BD00007A
:10080000848121420080214200080140EC00002048
:1008100070B504460D460A49C87900F047F8201221
:1008200000F02CF8E0B200F029F80549087A00F051
:100830003DF8281200F022F8E8B200F01FF870BD71
:10084000EC00002010B5044640210A48FFF795FE51
:1008500010210848FFF793FE2112074800F048F9DD
:10086000E1B2054800F044F940210248FFF787FE55
:1008700010BD0000000801400030014010B50446E2
:1008800040210848FFF779FE10210648FFF777FE60
:100890002146054800F02CF940210248FFF76FFE81
:1008A00010BD0000000801400030014010B50446B2
:1008B00040210848FFF761FE10210648FFF75DFE62
:1008C000E1B2054800F014F940210248FFF757FE55
:1008D00010BD0000000801400030014010B5024981
:1008E0008879FFF7E3FF10BDEC00002000BFFEE7B2
:1008F0007047000070B5002100230F22C47804B3B4
:10090000154C246804F4E064C4F5E064210AC1F1E4
:100910000403CA40447804FA03F184781440214364
:1009200009010E4C0678A155047804F01F05012436
:10093000AC4005786D11AD0005F1E025C5F800412A
:1009400009E0047804F01F050124AC40044D06784A
:10095000761145F8264070BD0CED00E000E400E0A3
:1009600080E100E002490143024A11607047000043
:100970000000FA050CED00E07047000029B1064ABE
:1009800092690243044B9A6104E0034A92698243EC
:10099000014B9A61704700000010024000B587B01B
:1009A00001210420FFF7EAFF01210803FFF7E6FF1A
:1009B000A020ADF8180018208DF81B0003208DF83A
:1009C0001A0006A93348FFF74DFD4020ADF8180086
:1009D00003208DF81A0010208DF81B0006A92D4861
:1009E000FFF740FD40212B48FFF7C7FD1020ADF871
:1009F000180003208DF81A0010208DF81B0006A99E
:100A00002448FFF72FFD10212248FFF7B6FD0820EC
:100A1000ADF8180003208DF81A0010208DF81B0087
:100A200006A91C48FFF71EFD08211A48FFF7A5FD7F
:100A30000420ADF8180003208DF81A0010208DF85E
:100A40001B0006A91348FFF70DFD0020ADF80400B8
:100A50004FF48270ADF806000020ADF808000220C7
:100A6000ADF80A000120ADF80C004002ADF80E0010
:100A70000020ADF81000ADF812000720ADF814000A
:100A800001A9054800F016F80121034800F006F816
:100A900007B000BD000801400030014021B10288CC
:100AA00042F04002028004E002884FF6BF731A4011
:100AB0000280704710B50022028802F441520B8870
:100AC0004C8823438C882343CC8823430C892343BD
:100AD0004C8923438C892343CC8923431A430280C6
:100AE000838B4FF2FF74234083830B8A038210BDF4
:100AF000024600BF108900F002000028FAD0918160
:100B000000BF108900F001000028FAD09089C0B21F
:100B10007047704710B500F001F810BD0CB500200B
:100B2000019000903348006840F4803031490860FB
:100B300000BF3048006800F4003000900198401C6D
:100B40000190009818B90198B0F5A06FF1D129482B
:100B5000006800F4003010B10120009001E0002096
:100B600000900098012843D12348006840F010000D
:100B7000214908600846006820F003000860084624
:100B8000006840F0020008601A484068194948604F
:100B90000846406848600846406840F48060486005
:100BA0000846406820F47C1048600846406840F4DD
:100BB000E81048600846006840F08070086000BF98
:100BC0000C48006800F000700028F9D0094840681F
:100BD00020F00300074948600846406840F00200E2
:100BE000486000BF0348406800F00C000828F9D1B5
:100BF0000CBD00000010024000200240042808D173
:100C00004FF0E021096941F004014FF0E022116149
:100C100007E04FF0E021096921F004014FF0E022E4
:100C2000116170477047000010B51348006840F02C
:100C300001001149086008464068104908400E4903
:100C40004860084600680E4908400B49086008469D
:100C5000006820F4802008600846406820F4FE0008
:100C600048604FF41F008860FFF754FF4FF00060AA
:100C70000449086010BD0000001002400000FFF8A9
:100C8000FFFFF6FE08ED00E010B540F225511D48CB
:100C900000F03EF810B31B4800F064F8C4B21A48E4
:100CA000008800F40040C8B91748008800F480406C
:100CB00060B10A2C03D000201349088020E01248BC
:100CC000008840F400401049088019E00D2C06D13E
:100CD0000D48008840F480400B49088010E00A4825
:100CE0000088C0F30D0009490C5407480088401CD7
:100CF0000549088008460088C72801DD00200880D3
:100D000010BD0000003801401C000020240000201D
:100D100070B50246002400230025002040F66A1624
:100D2000B14200D100BFC1F3421501F01F030126FB
:100D300006FA03F3012D02D19689334006E0022D15
:100D400002D1168A334001E0968A33400C12012604
:100D500006FA04F41688344013B10CB1012000E007
:100D6000002070BD01468888C0F30800704700BFAE
:100D7000FEE700BF7047000010B56FF00400FFF7FA
:100D80003DFF0A4800680A49B0FBF1F009490870C4
:100D90000846007800EB4001C1EBC0104FF6FF7130
:100DA00001EAC0000449088010BD000000000020D6
:100DB00000127A0014000020160000200146114A9B
:100DC00012884A434FF0E0235A6100229A611A4682
:100DD000126942F001021A6100BF4FF0E02210696F
:100DE00000F001021AB100F48032002AF5D04FF071
:100DF000E022126922F001024FF0E0231A61002282
:100E00009A6170471600002008B501211020FFF7F5
:100E1000B5FD4FF44040ADF8000003208DF802000E
:100E200048208DF8030069460148FFF71BFB08BD09
:100E30000010014010B5FFF7E7FFFFF72BFA10BDD8
:100E40004FF4A060FFF78EFDFFF7C4FAFFF7F2FF43
:100E5000012012490860FFF78FFFFFF79FFDFFF7A2
:100E6000ABFB4FF478400E4908804FF6FF700D49F8
:100E7000088000200C49C1F888010EE001200B49D0
:100E800008604FF47A70FFF799FF00200849C1F815
:100E9000B4014FF47A70FFF791FFEFE78801214228
:100EA0001E0000202000002000002142B401224248
:100EB000000022422DE9F05F83460F469046994696
:100EC0000024002523E0781981B25846FFF7A0FCE2
:100ED000FFF704FD4FF0000A15E0012000EB44008D
:100EE0000D490E5C4FF6FF7000EA0626084610F822
:100EF000140006433046FFF7A5FC601C84B20AF1DB
:100F000001001FFA80FAC245E7DB681C85B24D4537
:100F1000D9DBBDE8F09F0000402800080000000079
:100F2000000000000040000030C00100E0E00100CF
:100F3000C0E10000C061001880F1FF3F00700018A0
:100F4000003E001804DA01181CEE0118386F601812
:100F500078F7FF1870318618B0190618800906183E
:100F600080058619C0FEFF1BC000061AC030661837
:100F7000E070E6197C30E6187030E6186030E6184C
:100F800070F8FF1C7030E01C7000001C7000F01F37
:100F90007000800F0000000700000000000000004B
:100FA0000000000000008000000EC00100FEFF03F2
:100FB000000EC001000EC001000EC00100FEFF01C6
:100FC000000EC001000EC001000EC00100FEFF01B6
:100FD000000EC001000640000000000030700C1838
:100FE000F0FFFC3F70700C1870700C1870700C18CB
:100FF00070700C18F07FFC1F70700C1870700C185B
:1010000070700C1870700C1870700C18F07FFC1F4A
:1010100070700C18100004000000000000000000B8
:10102000000000000000300000007000001C700094
:10103000FC1F7000008C7100208C7700E08C730422
:10104000F08E731E708EF31F708EFB0C708E7F0CF3
:1010500070FE730C3086730C3086730C3096730CF4
:10106000F8BF730C38F8730C00B8730C00B8F30FAA
:1010700000BE7306E09B73307E9873301C9813306B
:10108000089C0330009C0330008C0378E00FFF7F46
:1010900080070000000300000000000080008000C6
:1010A0008000FC1F40004000FF7F20001000F00F78
:1010B0000008000460028001000200040001040234
:1010C0000800E83F0102020202020802C83F0402CF
:1010D0000702040204020402F47F00000000F80F7B
:1010E00008080808F80F08080808F80F200222224C
:1010F00024222812280A2002FF7F00000000FC1F83
:101100000000000000000000FF7F800080008808D1
:101110008810842082408140A00040004000800070
:101120008000FF7F200020002000E00F2008200822
:101130002008100810080808040502028000FE3F7D
:1011400002202000FF7F10047802C0033C1C8000B6
:10115000FF7FA00290048C1883608000FFFFFFFFD8
:10116000FFFFFFFFFFFFFFFFFFFFFFFFFFFFFFFF8F
:10117000FFFFFFFFFFFFFFFFBEF77DEFBAD6B6B55B
:10118000F39CB294B39CB29434A5F7BDFBDE7DEF23
:10119000FFFFFFFFFFFFFFFFFFFFFFFFFFFFFFFF5F
:1011A000FFFFFFFFFFFFFFFFFFFFFFFFFFFFFFFF4F
:1011B000FFFFFFFFFFFFFFFFFFFFFFFFFFFFFFFF3F
:1011C000FFFFFFFFBEF7FBDEF39CCB5AC7390421BC
:1011D000821042104210410883184529C7390C6318
:1011E00075AD3CE7BEF7FFFFFFFFFFFFFFFFFFFF0F
:1011F000FFFFFFFFFFFFFFFFFFFFFFFFFFFFFFFFFF
:10120000FFFFFFFFFFFFFFFFFFFFFFFFFFFFFFFFEE
:10121000FFFF3CE7B2940842C3188210042145291D
:101220008631863186318631452904218210410874
:10123000C3180842F39C3CE7FFFFFFFFFFFFFFFFDF
:10124000FFFFFFFFFFFFFFFFFFFFFFFFFFFFFFFFAE
:10125000FFFFFFFFFFFFFFFFFFFFFFFFFFFFFFFF9E
:10126000FBDE0C63C318C3184529C739084208427E
:101270000842084208420842C739C73986318631D8
:10128000042141088210CB5ABAD6FFFFFFFFFFFFAF
:10129000FFFFFFFFFFFFFFFFFFFFFFFFFFFFFFFF5E
:1012A000FFFFFFFFFFFFFFFFFFFFFFFFFFFFFBDE73
:1012B000CB5A82104529C73908420842094A494A8F
:1012C000494A494A494A494A0842C739C739C73988
:1012D0008631452983180000C84138C6FFFFFFFF4B
:1012E000FFFFFFFFFFFFFFFFFFFFFFFFFFFFFFFF0E
:1012F000FFFFFFFFFFFFFFFFFFFFFFFF7DEF8E738D
:1013000082104529C7390842094A8A523084CF7B66
:101310008A52494A4A52494ACB5ACF7B0C63084207
:10132000C73986314529C3180000494ABAD6FFFF9C
:10133000FFFFFFFFFFFFFFFFFFFFFFFFFFFFFFFFBD
:10134000FFFFFFFFFFFFFFFFFFFFFFFFF39CC3183F
:101350000421C7390842494A494A72947DEF7DEF1A
:10136000B2944A52494A8A5275ADBEF7BAD64D6B0D
:10137000C739C73986314529C3184108CF7B7CE777
:10138000FFFFFFFFFFFFFFFFFFFFFFFFFFFFFFFF6D
:10139000FFFFFFFFFFFFFFFFFFFFBAD608428210EB
:1013A000C7390842494A494A8E73FBDEFFFFBEF740
:1013B000BAD68E73084230843CE77DEFFFFFB6B5A6
:1013C000494AC73986314529042141084529B6B51E
:1013D000FFFFFFFFFFFFFFFFFFFFFFFFFFFFFFFF1D
:1013E000FFFFFFFFFFFFFFFFBEF7718C410845299C
:1013F0000842494A494A4A52B294BEF7BEF7B294EB
:10140000CF7BCF7B494AB6B5F39C0C6338C6BAD6BE
:101410000C638739C73986314529C31841083084A0
:101420007DEFFFFFFFFFFFFFFFFFFFFFFFFFFFFF5E
:10143000FFFFFFFFFFFFFFFF3CE7CB5A4108C73923
:101440000842494A4A528A52F39CFFFF7DEFC7394E
:10145000C3180C63CB5AB6B5B294CB5A75ADFAD655
:101460004D6B8739C73986314529042141088A5295
:1014700079CEFFFFFFFFFFFFFFFFFFFFFFFFFFFF33
:10148000FFFFFFFFFFFFFFFF38C686310421C84181
:10149000494A494A4A52494AB18CBEF7BEF7B2940A
:1014A000CF7BCF7B494A74A57DEF7CE7BEF779CE31
:1014B0000C63C739C7398631452904218210452973
:1014C00075ADBEF7FFFFFFFFFFFFFFFFFFFFFFFF51
:1014D000FFFFFFFFFFFFFFFF34A5821086310842A8
:1014E000494A494A8A52494A4D6BBAD6FFFFFFFF23
:1014F00079CE0D63C739CF7B7DEFFFFFFFFF75AD61
:1015000008428631C739863145294529C318C31891
:10151000B2947DEFFFFFFFFFFFFFFFFFFFFFFFFF25
:10152000FFFFFFFFFFFFBEF7B28C4108C73908423B
:10153000494A494A8A528A524A4AD07B7AC67BBE75
:10154000906BC9398831C939B384BBC6F8B5CC5A58
:101550008631C739C739863145294529C420410814
:1015600030843CE7FFFFFFFFFFFFFFFFFFFFFFFFB0
:10157000FFFFFFFFFFFF3CE78A4AC310C73908425D
:10158000494A494A4A4A4A42093A084A096B497B48
:10159000C67A05834683C57AC672097B485A873165
:1015A0008821882986318631452945290421410829
:1015B0004A4ABAD6FFFFFFFFFFFFFFFFFFFFFFFF13
:1015C000FFFFFFFFFFFFF7C582500541C729084213
:1015D000494A4A42494A097B889BC6B321D4A0DCC8
:1015E000E1E461ED61ED21EDA0E420DC80CB43ABD3
:1015F000C482065A47214629452904290419821024
:101600008218F39C7DEFFFFFFFFFFFFFFFFFFFFF4F
:10161000FFFFFFFF7DEF4D9300A082B8C731093275
:10162000494A867A43C36BEDF4F6EBFD20FD20FDBD
:1016300060FDA0FDA0FD60FD60FD20FDE0FCA0FCC4
:1016400060F4C1DB839AC54945290419C420823856
:101650000050CB6ABAD6FFFFFFFFFFFFFFFFFFFF7F
:10166000FFFFFFFFFBEE04A100C000F0C3A0C841D4
:101670004942059B20FCA4FC69FDE8FD63FD20FDBB
:1016800060FD60FD60FD20FD20FDE0FCE0FCA0FCB5
:1016900060FC20FC41D3C5494519C43882684188A3
:1016A0000070495A79CEFFFFFFFFFFFFFFFFFFFFEA
:1016B000FFFFFFFFFBF682C000D086C146F141C8A4
:1016C000457989528862866AC67AC4BBE1FC60FDAE
:1016D00060FDA0FDA0FD60FD60FDE0FC60E4039303
:1016E0008472446AC5414529C35841A8409800B056
:1016F00000600C6B79CEFFFFFFFFFFFFFFFFFFFFD6
:10170000FFFF7DEFCE83828800F8C4D80CF38AFAFD
:1017100082E882B04569C7510842083A865A839BDD
:10172000A2BC22CD21CDA1C422B4C47A063A862916
:1017300045290531C450419000C000A800A000A870
:1017400000304A4ABAD6FFFFFFFFFFFFFFFFFFFF4F
:101750007DEF8E73C318053982A800F8C3F84DFBDE
:101760004DFBC7F9C3F082D8C3B00481456146512F
:1017700086498649464145414541454105490461FF
:10178000829041B000D000C800A800A800B841581D
:1017900082108210B294BEF7FFFFFFFFFFFFBEF77B
:1017A000CF7B8210042186298641049940E841F8C4
:1017B00086F9CBFA49FA82F800F800F000E841D83F
:1017C00041D041C041C041C041C041C800D000E04B
:1017D00000E000D800D000B800A8418882488210FC
:1017E00082100000452979CEFFFFFFFFBEF7F39C72
:1017F0008210C31845298631C731307CF3DC86E17D
:1018000000F000F841F841F800F800F800F800F89E
:1018100000F800F800F800F800F800F800E800E030
:1018200000E000D800C841A08A9A0C63041182101D
:101830008210410800004D6B7DEFFFFFFBDE084288
:101840004210452986318631494A38BEFFFF38D6D5
:1018500086A900C800E000F000F800F800F800F8E1
:1018600000F800F800F800F800F000F000E800E0F0
:1018700000D0C3988A8AB2A4BAC6F7B50842410814
:101880008210410800004529F7BDFFFF718C410817
:1018900004214529863186310C633CE7FFFF79D668
:1018A00046B900E042C882A882B041D882E882F0FE
:1018B00041E841E841E841F041E841D804C10892DB
:1018C0004D8B34A5FBC6FBD6BACE3CE73084C3189B
:1018D0004108410800004108CF7B7DEF494A0000E4
:1018E00004214529463186313084FFFFFFF7F7DDBB
:1018F00009DA83F801F042C08298499AF3B4F3CC34
:1019000071BC8EBB8EBB30BC71BCF3BCB6BDFBCE14
:10191000BEE77DE73BDFBAD679CEFBDE75AD86311B
:101920004108410800000000494AFBDE042141084B
:101930000421452945298739B294FFFFBEF734DDDC
:101940000CEB09FA00F001D800D88BD27DE7FFFF3D
:10195000FFFFFFFFFFFFFFFFFFFFFFFFFFFFBEFFD8
:101960007DEFFBDEFBDEBAD679CEBAD678C6C739B4
:101970000000410800000000C73979CE0000821045
:10198000C318042105298631B39CFFFFFFF775DDDD
:10199000C7E9C7F901F801F000E849E2FBEEFFFFF3
:1019A000FFFFFFFFFFFFFFFFFFFFFFFFFFFFBEF790
:1019B0007DEFFBDEFBDEBAD679CEBAD6B9CE0842D1
:1019C0000000000000000000C73938C60000821087
:1019D00082100421042145293084FFFFFFFF38DEF7
:1019E000C4D000F001F800F800F008D2FBE6FFFFD9
:1019F000FFFFFFFFFFFFFFFFFFFFFFFFFFFFBEF740
:101A00007DEFFBDEBAD679CE79CEBAD679CEC7399C
:101A10004108000000000000863138C600000000C8
:101A2000C318CB5A8631C318CB5A7DEFFFFF7DEF29
:101A3000CFBBC3B041D041D082B84DB37DE7FFFFEB
:101A4000FFFFFFFFFFFFFFFFFFFFFFFFBEF7BEF738
:101A50003DEFFBDEBAD679CE79CEFAD6F7BD0421BA
:101A60008631042100000000863138C68631C31853
:101A7000CB5A75ADCF7B41088631F7BDFFFFFFFF25
:101A8000BEEF74B5309C309C72A4BBD6FFFFFFFF45
:101A9000FFFFFFFFFFFFFFFFFFFFFFFFBEF77DEF31
:101AA0003CE7FBDEBAD679CE79CE3CE7718C810873
:101AB0000C63CF7B821000008A5238C675AD718CE2
:101AC000B6B53CE7FBDEC7390000CF73FFFFFFFF71
:101AD000FFFFFFFFFFFFFFFFFFFFFFFFFFFFFFFF16
:101AE000FFFFFFFFFFFFFFFFFFFFBEF77DEF7DEF73
:101AF0003BDFFAD679CE79CEFBDEB9CEC739C4202A
:101B0000718CBAD6718CCB5AB294BAD6FFFF7DEFE6
:101B10007DEFFFFFFFFFB6B54629051975A5FFFF4D
:101B2000FFFFFFFFFFFFFFFFFFFFFFFFFFFFFFFFC5
:101B3000FFFFFFFFFFFFFFFFFFFFBEF77DEF3CE76B
:101B4000FBDEBAD679CEBAD6FCDE4E6342080C6311
:101B5000F7BDBEF7FFFFFBDEFBDEBEF7FFFFFFFFBB
:101B6000FFFFFFFFFFFFFFFFF49C04210521B6A547
:101B7000FFFFFFFFFFFFFFFFFFFFFFFFFFFFFFFF75
:101B8000FFFFFFFFFFFFBEF7BEF77DEF3CE7FBDE89
:101B9000BAD679CEFBDEBBD6D17383188639349D95
:101BA000BDEFFFFFFFFFFFFFFFFFFFFFFFFFFFFF97
:101BB000FFFFFFFFBEFF35D6EBCC43B34051051905
:101BC000F58CBEEFFFFFFFFFFFFFFFFFFFFFFFFFF3
:101BD000FFFFBEF7BEF77DEF7DEF3CE7FBDEBADE31
:101BE000BAD63CDF3ABE4F63824940A323B4CC83CC
:101BF0003ABEFFFFFFFFFFFFFFFFFFFFFFFFFFFFFB
:101C0000FFFFBFF7B5BD829220F4A0FC60E44082E4
:101C100084418F6B77AD3DE7FFFFFFFFFEFFBEF70F
:101C2000BEF7BEF77DEF7DEF3CE7FBDEFBDE3DE779
:101C3000BBCE369D0B6B416A60C420FE60F5008B05
:101C4000C76A38C6BEF7FFFFFFFFFFFFFFFFFFFFBA
:101C5000FFFF7DEF4B7B80B2A0FCA0FCE0FCE0FC32
:101C6000C0CBC18A45624D6BB394F7BD3DDFFFF732
:101C7000FFFFBEF77DEF7DEF7DE73DDFBAC675A5BF
:101C80008D7B847A40B3E0ECE0FDE0FD60F520E57B
:101C9000A0D40A6BFBDEFFFFFFFFFFFFFFFFFFFF8C
:101CA000FFFF7DEFCC9340EB60FCA0FCE0FC20FD4F
:101CB00060FD20F5A0D4C0BB429B458B6B9CAE9CC5
:101CC000718CB394339D34A5F2A4F0B4CA9B049BE9
:101CD00040BB20E420FDA0FDA0FDE0FDE0FDE0FD17
:101CE00020C4885A38BEFFFFFFFFFFFFFFFFFFFF42
:101CF000FFFFFFFF78D646AB40DB20F460FCA0FC82
:101D0000E0FC60FDA0FD60FD20F5A0DCC0B3C0518B
:101D100086290D638F7B0D5BC741018200C3C0E341
:101D200060FCA0FCE0FCE0FC60F560F520E5809B39
:101D30008662308479CEFFFFFFFFFFFFFFFFFFFFCA
:101D4000FFFFFFFFFFFF38C62D9C059343A382B31F
:101D5000C2BBC2BB22B482A34293C37A85620B6327
:101D60007184B6B579CE79C6B5AD70944A8B0683C9
:101D70000493049B439B439B4393048308738D7399
:101D8000B39479CE7DEFFFFFFFFFFFFFFFFFFFFF63
:101D9000FFFFFFFFFFFFFFFF3CDF38BE75B533A538
:101DA00033A5F39CF39CF39CF394F39C35A5F8BD09
:101DB000FBDEBEF7FFFFFFFFFFFF7EEFBBD6F8BDE8
:101DC000B6AD75AD34A5339D349D35A5B7AD79C697
:101DD0003CE7BEF7FFFFFFFFFFFFFFFF0000000033
:101DE0000000000000000000000000003F40000074
:101DF0000000000000003000400030004000000003
:101E000009000BC03D000BC03D00090018C0244074
:101E10007FE0224031800000180024C01B000D80AC
:101E20003240018003801C4027401C800740004056
:101E30001000600000000000000000000000000032
:101E400000001F80204040200000402020401F80D4
:101E500000000000090006001F80060009000000C5
:101E6000040004003F800400040000000010006033
:101E70000000000000000000040004000400040052
:101E8000040000000000004000000000000000000E
:101E9000002001C006003800400000001F802040E4
:101EA000204020401F800000000010403FC0004044
:101EB0000000000018C021402240244018400000CB
:101EC00010802040244024401B80000002000D00B0
:101ED00011003FC0014000003C80244024402440C9
:101EE000238000001F8024402440344003800000F1
:101EF0003000200027C03800200000001B80244054
:101F0000244024401B8000001C0022C022402240AC
:101F10001F800000000000000840000000000000DA
:101F20000000000004600000000000000000040049
:101F30000A00110020804040090009000900090042
:101F40000900000000004040208011000A00040049
:101F50001800200023402400180000001F802040AB
:101F6000274029401F400000004007C039000F00F3
:101F700001C0004020403FC0244024401B8000009E
:101F80001F802040204020403080000020403FC083
:101F9000204020401F80000020403FC024402E40B1
:101FA00030C0000020403FC024402E003000000020
:101FB0000F001080204022403380020020403FC0AC
:101FC000040004003FC02040204020403FC020408B
:101FD000204000000060202020203FC02000200082
:101FE00020403FC024400B0030C0204020403FC074
:101FF00020400040004000C03FC03C0003C03C0007
:102000003FC0000020403FC00C4023003FC02000E4
:102010001F802040204020401F80000020403FC003
:1020200024402400180000001F802140214020E0AF
:102030001FA0000020403FC02440260019C00040DF
:1020400018C024402440224031800000300020404D
:102050003FC020403000000020003F800040004092
:102060003F80200020003E0001C007003800200013
:10207000380007C03C0007C038000000204039C0CD
:10208000060039C0204000002000384007C038401A
:1020900020000000304021C02640384020C0000011
:1020A000000000007FE040204020000000007000A1
:1020B0000C000380004000000000402040207FE032
:1020C0000000000000002000400020000000000090
:1020D00000100010001000100010001000000000A0
:1020E00040000000000000000000028005400540A4
:1020F00003C0004020003FC00440044003800000B3
:1021000000000380044004400640000000000380FB
:10211000044024403FC000400000038005400540CB
:1021200003400000000004401FC024402440200061
:10213000000002E0055005500650042020403FC03A
:102140000440040003C000400000044027C00040D9
:102150000000000000100010041027E00000000044
:1021600020403FC00140070004C004402040204000
:102170003FC000400040000007C0040007C004004A
:1021800003C00000044007C00440040003C0004036
:10219000000003800440044003800000041007F0A6
:1021A00004500440038000000000038004400450F9
:1021B00007F00010044007C00240040004000000C3
:1021C000000006400540054004C000000000040077
:1021D0001F800440004000000400078000400440CD
:1021E00007C000400400070004C00180060004008E
:1021F000060001C0070001C006000000044006C040
:10220000010006C0044000000410071004E0018033
:10221000060004000000044005C006400440000021
:102220000000000004007BE04020000000000000EF
:102230000000FFF000000000000040207BE00400F0
:10224000000000004000800040002000200040000E
:10225000000000000000000000000000000000007E
:102260000000000000001FCC000C00000000000077
:10227000000008003000600008003000600000002E
:10228000022003FC1E20022003FC1E20022000006E
:1022900000000E1811043FFF10840C7800000000AD
:1022A0000F0010840F3800C00778188400780000F1
:1022B00000780F8410C411240E9800E400840008F4
:1022C000080068007000000000000000000000002E
:1022D00000000000000007E0181820044002000081
:1022E000000040022004181807E000000000000071
:1022F0000240024001800FF00180024002400000D5
:102300000080008000800FF80080008000800000C6
:102310000001000D000E00000000000000000000A1
:10232000000000800080008000800080008000802D
:102330000000000C000C0000000000000000000085
:102340000000000600180060018006001800200050
:10235000000007F0080810041004080807F0000047
:102360000000080408041FFC000400040000000032
:1023700000000E0C10141024104411840E0C0000E8
:1023800000000C1810041104110412880C700000D5
:10239000000000E00320042408241FFC00240000A7
:1023A00000001F98108411041104108810700000A0
:1023B000000007F00888110411041888007000005C
:1023C00000001C00100010FC13001C001000000096
:1023D00000000E3811441084108411440E3800009F
:1023E00000000700088C10441044088807F0000023
:1023F000000000000000030C030C000000000000BF
:1024000000000000000101060000000000000000C4
:1024100000000080014002200410080810040000A1
:1024200002200220022002200220022002200000BE
:102430000000100408080410022001400080000081
:1024400000000E001200100C106C10800F00000035
:1024500003E00C1813E4142417C4082807D0000064
:102460000004003C03C41C40074000E4001C0004BE
:1024700010041FFC1104110411040E8800700000E8
:1024800003E00C1810041004100410081C100000C5
:1024900010041FFC100410041004080807F00000CA
:1024A00010041FFC1104110417C4100408180000C4
:1024B00010041FFC1104110017C0100008000000D8
:1024C00003E00C181004100410441C7800400000B5
:1024D00010041FFC10840080008010841FFC100476
:1024E0000000100410041FFC100410040000000081
:1024F00000030001100110011FFE10001000000079
:1025000010041FFC110403801464181C1004000044
:1025100010041FFC1004000400040004000C000060
:1025200010041FFC1F0000FC1F001FFC1004000013
:1025300010041FFC0C04030000E010181FFC100026
:1025400007F00808100410041004080807F0000041
:1025500010041FFC10841080108010800F000000F9
:1025600007F0081810241024101C080A07F20000B5
:1025700010041FFC1104110011C011300E0C0004D6
:1025800000000E1C11041084108410441C3800003C
:102590001800100010041FFC1004100018000000A8
:1025A00010001FF810040004000410041FF81000AD
:1025B00010001E0011E0001C007013801C001000B1
:1025C0001FC0103C00E01F0000E0103C1FC00000D6
:1025D0001004180C163401C001C01634180C100475
:1025E00010001C00130400FC13041C001000000069
:1025F0000804101C1064108413041C04101800003C
:102600000000000000007FFE400240024002000087
:10261000000030000C0003800060001C000300007C
:1026200000004002400240027FFE00000000000067
:10263000000000002000400040004000200000009A
:102640000001000100010001000100010001000182
:1026500000004000400020000000000000000000DA
:1026600000000098012401440144014400FC0004DE
:1026700010001FFC008801040104008800700000A5
:1026800000000070008801040104010400880000BB
:102690000000007000880104010411081FFC000400
:1026A000000000F8014401440144014400C8000056
:1026B0000000010401040FFC1104110411001800B2
:1026C000000000D601290129012901C901060000E5
:1026D00010041FFC008401000100010400FC000440
:1026E00000000104190419FC0004000400000000AB
:1026F0000000000300010101190119FE00000000A3
:1027000010041FFC0024004001B4010C010400006F
:102710000000100410041FFC00040004000000006E
:10272000010401FC0104010001FC0104010000FCA2
:10273000010401FC008401000100010400FC00040C
:10274000000000F8010401040104010400F8000085
:10275000010101FF008501040104008800700000F0
:1027600000000070008801040104010501FF000160
:102770000104010401FC0084010401000180000047
:10278000000000CC01240124012401240198000050
:1027900000000100010007F801040104000000002E
:1027A000010001F8000400040004010801FC000419
:1027B000010001800170000C001001600180010027
:1027C00001F0010C003001C00030010C01F00100EB
:1027D00000000104018C00740170018C01040000F0
:1027E000010101810171000E0018016001800100EA
:1027F00000000184010C013401440184010C00003B
:10280000000000000000000001003EFC4002400209
:102810000000000000000000FFFF000000000000BA
:102820000000400240023EFC0100000000000000E9
:102830000000600080008000400040002000200078
:10284000F56CD564D564F564166D367536753675D8
:102850003675577557753675F56CD564D564D5647E
:10286000D564945C735C945C945C945CB45CB46478
:10287000B464B464D564F564F56415651565F564F0
:10288000166D7775777597757775977597759775D1
:10289000B8759775B875B875B875B875B875B875F1
:1028A0009775B875B875D875D875D875D875B87561
:1028B000B8759875B87DB97D997DB87DB77DB77DC0
:1028C000B87DB87DB87D9775977D977DB87D9775F4
:1028D00077757775777D577D577D3675777D577D11
:1028E000167D788D5785F5743675767555755575E1
:1028F00055853385F384726C35851EC77CB6BDB6AD
:102900007685F56C1675F66CF76CF66C376D576D51
:10291000566D566D366D366D366D366D366D366D5F
:10292000366D577557755775576D77757775576D40
:10293000376D776D9875577D777D9775B775357558
:10294000D36C3685777D777D577D777D366D366D97
:10295000F664D564F564F56417751B9E988DF67C56
:102960003685F57CF584B895525C35751575367DE0
:102970001575B36C525C7264F995BDAE5C9E37758B
:10298000B464945C945CB45CB464F564F56CF56C0C
:10299000F56C166D166DF56CB464B45C945C735C88
:1029A00073543254124C324C324C325432545354CD
:1029B000535453547354945CB45CB45CB45CB45CD2
:1029C000D564166D366536653665366D366D366D91
:1029D000566D566D566D566D566D566D566D5665E7
:1029E000366D566D566D776D776D776D776D576572
:1029F0005765376D576D5775577557757675767579
:102A00007675566D366D366D36753675156D156D78
:102A1000356D366D366D367D567DD56C36751675D1
:102A2000D5741A9EFDB6357D356D156D156DF46C3A
:102A3000B36C5064EE53357DDCB6FDBE78851675FB
:102A4000B35CB45CB464B464D564F66C366D166D76
:102A5000366D166D366D366D366D366D366D366D7E
:102A6000366D366D366D366D366D566D366D366D2E
:102A7000376D366D376D166D366D366D356DB36CE1
:102A80007164D47C166D166DF56CB564945C945CC1
:102A9000156D57751675535CD98D9CAE988DF6746F
:102AA000946C36855BAEF57C1054B364146D9364FE
:102AB000F04BD04B525C935CB464745C945CB45C3B
:102AC000B45C945C945C945CB464F564F56CF564FB
:102AD000F564F56CF56CF56CD564B464945C735C6A
:102AE0005354535432543254325432543254535453
:102AF000535C735C735C7354945CB45CB45CB45CA2
:102B0000F564166D366D566D366D566D366D366DD7
:102B1000566D566D566D776D566D566D566D566584
:102B2000566D776D776D9775777597757775576D66
:102B3000576D576D57757775577556755675567528
:102B40005675566D566D566D367536751675157506
:102B5000F56CD4649464988D7BA63675156D1575E7
:102B6000F574F57C4E43D46C156D156DD464535CCF
:102B7000F04B3054915CF88DF88DD56CB464B45C36
:102B8000B354935C945CF56CF56C166D366D366DD4
:102B9000366D366D366D366D366D366D366556650D
:102BA000366556653665566536753675366D166DFD
:102BB000166DF66C166D366D366D366D1475B26C1D
:102BC0005064D474156DF564B5649464946494642D
:102BD000D98D7B9EDDB6988D5BA65BA6B88DF56C16
:102BE000F56CD9959CAE7AAE6D4B92641054F04B57
:102BF0005254B35C935C935C935CB564745C7354A3
:102C0000B464945C945CB464D564F56CF56CF56C58
:102C1000F56C166D166D166D166DF56CD564945CBD
:102C2000735C5354535432543254325453545354A7
:102C3000535C945C945C945C945CB45CD564F56483
:102C4000366D366D366D566D366D566D566D566DEC
:102C5000566D776D776D776D566D566D566D566501
:102C6000566D566D566D77757775567557757775C0
:102C7000566D366D566D7775577556755675577511
:102C80005675566D566D566D36751675D56CF9952B
:102C90003BA6D995D5749CBEDDAED88D156DB464B8
:102CA0003A9EDCB639A6736C156DD4643254F15378
:102CB0003354B35CB35C945C9354B45C945CB35491
:102CC00093547354D56CF574156DF564366D366D8B
:102CD000366D366D366D366D366D366D56655665AC
:102CE000566556655665566556751675F56CB88504
:102CF000F56CD46CD5643665366D156D14757164DC
:102D0000506CB374F464B45C945C535C535C535C7B
:102D100097859BAEDDBEFAA5D99DD574D56CF564BB
:102D20001665B56C5BAE1585C8194E431154735CBE
:102D3000935CB35C935CB35C7254945C955C945C00
:102D4000B464935C945CB464D564D564D564F56470
:102D5000F56CF56C166D166D166D166DF564945C5C
:102D6000735C535453545354335453545354535C1B
:102D70007354B45C945C935C9354945CD564166D0A
:102D8000366D366D36653665366D566D566D566DDB
:102D9000566D566D566D566D366D56655765776D29
:102DA000576D576D566D36755775577D1575156D81
:102DB000156D356D566D766D5675566D5675567525
:102DC0007675567556755675356D1575B46C5BA66A
:102DD0009CAE5FCF999DBDB63BA6367D156D157532
:102DE0003A8E1DBF157D0C331154B0433254946498
:102DF000B45CB45CB45C945C945C945CB45CB454BB
:102E0000B35C936CB47CB474D47CD46C356D166DA7
:102E1000166D376D366D366D356D356D366D3665C3
:102E20005665366D7775366DF574D474988DFDB62C
:102E3000D88D9364D46CF56C1575F474F05B0F5CED
:102E40005064D364D45C945C935C735C735C1A963A
:102E5000BBAE9AAE9BBE4F5B8719936CF46CD36C80
:102E6000F46CD46C94741264F053725C735C735C95
:102E7000777DF98D945C935C935C945C955C945C39
:102E8000945C735C945CB464D564D564B564D564B7
:102E9000D564F56CF66CF66CF56C166DF56CD56456
:102EA000945C735C535453545354735C735C735C01
:102EB000945CB45C945C935C945CD45CF564166D37
:102EC000366D366D36653665366D566D566D566D9A
:102ED000566D566D566D566D366D566D576D776DD8
:102EE000776D776D776D777D367516759CA6157540
:102EF000D46CD464366D566D566D356D566D566D09
:102F0000566D566D567556753675F57477857CAE6B
:102F1000DEBEDEC69584547494741675F464F5644C
:102F2000356DF88D52640B3BAF4B936494647464BD
:102F30007464945C945C945C945C945C945CB45C09
:102F4000935C9474F68CFAB5D8A53585156D166D1D
:102F500036651665366D356D366D366D366D366D8A
:102F60001665366DF564366D9364157DF99DFDB675
:102F7000BCB6199ED78DD36CF37431641064D374CE
:102F8000B25CD35CD454B45C945C945C377D3B9E5F
:102F9000B8951585937CED52ED4A2D43AE432F4CE9
:102FA0007164726CF15B9053125C94649564D66C9E
:102FB0009CA6DDAEB56CD56C735C945C945C945C43
:102FC000945C735C745C9464B564B464B464B56418
:102FD000D564D564F56CF56CF56C166DF56CF5641F
:102FE000D564735C735C73547354935C945CB45C8D
:102FF000D45CD45CB45CB45CD45CF564166D366DA2
:10300000366D1665366D566D566D566D566D566D30
:10301000366D366D566D366D366D366D576D576D36
:10302000776D776D5775F574D574B895DCB63A9EA3
:10303000D46C567D166D3675366D366D366D566DA3
:10304000567556755675566D1675577DDDB69CB618
:103050009DBED9ADC9294B32B47CB36C3575F46CC7
:10306000146DF46CF053F0539364935C945C74644B
:103070009464945C945C945C945C945C94649464B8
:10308000B46494741AB67BCEBBCE7ABE726C1575DE
:103090005675156D156D366D376D1665166D166D99
:1030A000156DD464B885D4643A9EBCB63AA6FCBE0D
:1030B000FDC61DC7F47C5164EF5B316CD47CF574A4
:1030C000B35CB45CB454B45CB45C9464946C736CE2
:1030D000B89DB79DD7AD517C6E5B516CD26C8D3B6A
:1030E000EF53AF539053325C74647464B66CF674EF
:1030F000DDB6DEB63B9EDDAED564745C945C955C5B
:10310000745C545C545C745C946494649464B564BE
:10311000B464B464F56C166D166D166D166DF56CB1
:10312000F564F564D564D564D45CD564F564F56460
:10313000D55CD55CD564D55CF5641565166D366DCA
:10314000366D366D366D566D366D366D366D366D47
:10315000366D366D366D366D576D576D576D3665FC
:10316000576D576DD56CD5741685D99D3EC7FDB684
:103170001DB79785F56C36755775366D366D376D9D
:10318000566D566D566D566DD56C57859895F57C78
:10319000B47C158DD0634D538E53CF53CF4B5264B7
:1031A0001164D04B5254D564745C945CB45C945CF0
:1031B000945CB45CB45C945C9354567D19963A9ECE
:1031C000978DB47C39B65AC67ACE5DE7927C726C24
:1031D000D474F46CD564176D176DF664F66CF66CE8
:1031E000F56CD46C567D4E3B125C1AA6BBB66A2AAF
:1031F00079B6F484106492749374D47CF574D56CAD
:10320000535C956495645354B45CB464D053316496
:10321000B27C138D37B638BE18AED79D52648F433B
:10322000936C936C936C9364946CD56CBCB6DEC653
:103230007BB6FDBE1EB79DA6B65CB55C94547454B7
:10324000745C545C545C545C74649564B564B4649C
:10325000B464B464D56CF56CF66C166D166D156DB2
:103260001565166DF564F564F564F564F56415652A
:1032700015651565F564F564F5641565166D366DAF
:10328000366D366D366D566D366D366D366D366D06
:10329000366D366D366D366D366D366D366D366D16
:1032A00016657B96B043BCB6FDBE1DC71AA69FD758
:1032B000BCB6167D16755775566D366D366D5675DE
:1032C000566D566D356D5675167DD474526C19A6B3
:1032D000D7A539BEB384927CF4847164AF4B10548B
:1032E000315C3154935CB45C945C945CB45CB45CCD
:1032F000B45C945C945CB35CB4645AA67BAE9BB63D
:103300001DBFB79D96A559BEFBDE17C6718C5AC668
:10331000BBC65BB65785D674D66CF6641665F66C7C
:10332000F56C3675567DF5741575936C8E4BC71913
:103330007274106CD48439A6357D3685F574B46CFE
:10334000735C53647464946432546F3BD895DDBEEF
:103350007ABE58BE17B618B6B7A5F8A5157D526443
:103360006F434B220E3B12540E3B0E33325C3AA697
:10337000D05B4E4BD99594641775945CB45CB45C87
:10338000745C545C545C545C545C7464B564B464A4
:10339000B464B464B464D56CF66C166D166D156DBA
:1033A0001565F564F564F564F564F56415651565F2
:1033B00015651565F564156515651565166D366D2C
:1033C000366D366D366D566D366D366D366D366DC5
:1033D000366D366D166D166D166D166D366D16657D
:1033E000376D1565735CD14BF4743685471136958E
:1033F000F584D474777D366D366D366D366D566DC9
:10340000566D566D5675156D526C726C7695569557
:10341000D7AD17B69AC6D7AD39AECF53515CB35CB2
:10342000935CB464945C945CD45CB45CB45CB45C55
:10343000B45C945C945CB35CB4643A9EDCBEBCBE89
:103440009BB65AB6559DFBD699CE17BED6B539BE9A
:10345000DCCE7BBEB99DD674F674F6641665166D27
:10346000167516753675157555751475F47455857C
:103470004D536E5BF0638F53F47C5685F57CB88DAD
:10348000D895D5743364904B1154167D1AA6BDBEE1
:10349000BBC6D7AD79C6D8B5DCCE9BB6936C73648A
:1034A0009364D14B4F3BD14B9364B46493645264A7
:1034B000CB3A8A32526C94743B9E7B9EB45CB45C73
:1034C000535C335C535C545C335C545C9464946430
:1034D000946494649464B564F56C166D166D166D01
:1034E0001565156515651565F564F564F564F56490
:1034F00015651565F56415651565166D166D166D02
:10350000366D366D366D566D366D366D366D366D83
:10351000366D166D166D166D166D166D366D366D33
:10352000366D576D56753675567D5264AB324E53B7
:10353000D47C357DFDB6567D567D35751575D46CBC
:10354000767D3575D46CD04B736C9BB6DCC61CCFC6
:1035500018B658C679C61AB63AAEF574935CB35C21
:10356000935CB35C9354D45C366DD564945CB45C6A
:10357000B45C945CB45C935C7364D57CB8A5BCC645
:103580005ED75DD7FBCE54A579C6F6BD38BEBAC6A8
:1035900059AEDBB67785366DF66416651665166529
:1035A000F56C1675F56C15755575F36C96853CBF05
:1035B000526C326C326C8B32315CB374726CDCB630
:1035C0009BB6B47C4B2AD57C946CB46C946CD6843A
:1035D000779559B65DD719B6F9B55AAE7364746468
:1035E0009464945C9464946474649464935C93644D
:1035F00076859695E821CD42B053B04BD46C946457
:10360000335C33541354335C335C545CB56494645E
:10361000946494649464B464D56CF56C1565156D0C
:103620001565156515651565F564F564F564F5644E
:1036300015651565166515651565166D166D166D9E
:10364000366D366D366D566D366D366D366D366D42
:10365000366D166D366D166D166D166D366D366DD2
:10366000376D566D567556751675B785BBAE4E4B94
:103670006A2A6E4B091A167DF574F57CDCB6399E04
:10368000B46CB04BD053F474978D19A6BBBEF8A59B
:103690009ABE99C619B6BDC65BAE9464B45CB45C00
:1036A000B45C945C945C366D5775566DB45C945CF8
:1036B0009354B45C945CB45C9364D57C5BBEBCCE28
:1036C0003DD71CD7BACE17BEB5ADF7BD95A534957D
:1036D000D79DF37C146D356D365D1665166DF66CF1
:1036E000F56CF56C157515753475715C7164968D96
:1036F000768DD47CB474B78D199E39A6147D39A605
:10370000B795D05BD15BDDB61A9E535C536495745C
:103710007BAEFBBE1CC756955BB6167D535C745CD6
:10372000945C945C945C945C9564945CD564B5649E
:103730003DBFFCBE4E4B3685115C0D33D153746CCE
:10374000135433543354535C535C745CD56CB5647C
:103750007464746474649464D56CF564F564F5649D
:10376000F564F56415651565F564F55CF55CF5645F
:1037700015651565166515651565166D166D166D5D
:103780003665366D366D366D566D566D566D566DA9
:10379000366D366D366D166D166D166D166D366D91
:1037A000366D566D56755675367539969EC7758544
:1037B000F374D474B05B4F4BD57C326C9BBE9CBE13
:1037C0006E53ED4219AE9374157DB474D47CDCBE97
:1037D0009BBE7EDF5ABEBCBED995335C945C945CC4
:1037E0007564945CB45C366D366DD5649354B45C8A
:1037F000B45CB45CD45C3675567DF68CB9ADBBCE8A
:10380000FCD63DDF38C6D6B594ADD5B595B5F7C570
:103810001CD7D79DF474356D166D16651665166D3B
:10382000166D366D3675F46C305C7164F374147516
:1038300015753575F474F574BCB69BAEF89D348D72
:10384000969D59AEF89DDCB65A96735C735C956490
:10385000F995189ED374B05BB574745C955C955CF7
:10386000945C945C945C945C945C955C7554545446
:10387000166D57855364925C56751AA63BB6F9A52A
:10388000F24B1254535C335C535C9464D56CB56456
:10389000745C745C94649464D56CF564F564F5644C
:1038A000F564F564F564F564F564F55CF55CF56460
:1038B000156515651565F564166D366D366D366DD5
:1038C000366D366D366D366D366D366D366D366DE0
:1038D000366D366D366D166D166D166D166D366D50
:1038E000366D366D567556755675356D967D5575B2
:1038F000146DD46C199E1DC75AB6969DD8A53595E2
:10390000527419AE3ECFD99DF674D674F67C3EC77C
:103910003DC739AE568DD88DB464945C945C945C8C
:10392000745C945CB45CD45CB45C935C945CB45C98
:10393000735C945C987D9BA63AA69CBE5BC639BE20
:1039400059BE79C6EF7379C6549D17BED7BD9AD6B6
:103950001CDFBCCE568DF574F564166D166D156DB5
:10396000D46CF57493645264726CF05B5164357D71
:1039700035753575D46C52644E43768DB79D9695EA
:10398000D7A55AAE39A6D88D9464B464745C9454A7
:103990009464B364B04B74649464735CB45C945486
:1039A000945C945C945C945CB45C955C555C9564AC
:1039B000D46453647364B364B3649795F9AD9BBEE8
:1039C000D14BD14BF14B535C74649464D564B464B3
:1039D000745C745C945C735CB464F5641565156523
:1039E0001565F564F564F564F564F564F5641565CD
:1039F000156515651565F564366D366D366D366D74
:103A0000366D366D366D366D366D366D366D366D9E
:103A10003665366D366D366D166D166D166D166D16
:103A2000376D376D37753675777576755675767D62
:103A3000156D357DB374B79D19AE18AE559539AE79
:103A40003DC75AA6BCAEB885F66CF66CF6747785A1
:103A50003685D0533154B45C945C945CB45C945C13
:103A6000945CB45C366DD45CB45CB45CB45CB45C43
:103A7000945C945CB8853A9E5AA67CB6DDCEB06B59
:103A80006942CB4A9284DBC6BBC6FBCEF8B5FCD6F6
:103A9000DCD69CCED8A5D574D564D564945C73640B
:103AA000B2745264936C5264115CB36C367D978D22
:103AB000EC3A52648F535274DCBE9BB639A67695AD
:103AC000568D5AAE7BA67BA6735C745C945C945452
:103AD000945C124C3254745C945C945C945CB4546A
:103AE000945C945C945C945CB454945C946494642E
:103AF000577D1575B36C725C72648F53737CB8A577
:103B0000D14BB043904312549464B5649464745C94
:103B1000735C735C73547354945CF564156515653C
:103B20001565F55C15651565F564F564F564156551
:103B3000156515651565F564366D366D366D366D32
:103B4000366D366D366D366D366D366D366D366D5D
:103B5000366D366D366D366D366D366D366D366D4D
:103B6000376D37753775577D56755675198E156DC6
:103B70005685726C8F53B47C19AEF7A5F79D5AAE7B
:103B8000BCB6BCB6B88DF66C3665F664F56CF574EB
:103B90005364F053735C745C945C945CB45C9454B4
:103BA0009354B45CF564945C945C945CB45CB45CD5
:103BB000B45CB45CB5643A96DDB6DDBEDDC6F06BD0
:103BC0002842CB52559D1DD73ED71DD719B6B7A554
:103BD000BBBE5AB6D89D156DD564935C3254D05394
:103BE000105CCF5BF05B3264F56C1675B464325CCC
:103BF0004D437264357D147DBBB6FDBE199EF89DA4
:103C0000FCBE52645B9E3A9694649464545C745C0B
:103C10005354124CB464735C945C9464945CB45CD0
:103C2000B45CB45CB45CB45C945C945C745C9464AC
:103C3000B88DB04B6E43AF4B1054F99DFDC6D99D66
:103C4000F253F14B90436F3B535C9464735C535459
:103C50005354735C7354735CB564F56416651665F0
:103C60001565F564F564F564F564F5641565166528
:103C70001565156515651565366D366D366D366DD0
:103C8000366D366D366D366D366D366D366D366D1C
:103C9000366D366D366D366D3675366D366D3675FC
:103CA000166D367556755675767D367576854A224B
:103CB000D0531264568DDCBE9BB639AE97955685AF
:103CC000399EDCAE5A9E166D366D366D166DD46C0F
:103CD0001154B35C935C945C945C945CB45C945CB1
:103CE000945CB45CB45C945CB45CB45CB45CB45C94
:103CF000B454B454945C735C167DBCAEBCBE5EDF41
:103D00008B4A4E63359D9BC6DCCE3ED75AAED474EB
:103D1000778D978D777DD464935C73541154726C56
:103D20006E4B49225164B46CD564D5645254935C93
:103D3000146DD46CD46CF474B8953685778DDDB67B
:103D4000FCB65685535C745C945C745C945C745CE7
:103D5000F14B735C9464745C945C945C945CB45CB0
:103D6000B45CB45C945C945C745C735C9364F57454
:103D700093648F43325CF574B36C3AA6BCB6FDBE57
:103D8000D14BB14BB0436F3B1254946453543354F2
:103D90005354535432545354D564F564F564F56464
:103DA000F564156515651565F564F56416651665A4
:103DB000156515651565166D366D366D366D366D86
:103DC000366D566D566D566D566D566D566D566DFB
:103DD000366D376D576D576D3675566D366D166D80
:103DE0003775167536755675567DB364B04B325CB3
:103DF000157DF57C5785DDBEBCB6D89D9BB6FDBE56
:103E0000936C1996777D166D156556751675125457
:103E1000735CB45CB354B45C945CB45CB45CB45C8C
:103E2000945CB45CB45C9354B45C945C945C945CBB
:103E3000B454B4549454B4645BA6DDBEFDC6BCC691
:103E40008F6BB48C5ABE3AB63BB65BB6778D1575A0
:103E5000B46CF46CD464725C725C315493643164FD
:103E60006E4B2D3B5264B464F564F564F56C3675A5
:103E70001575F574F5741575F574F5747785FDB6DB
:103E80009BA6D56C735C945C745C735C735C12541D
:103E90006F3BB464745C945C945C945CB45C945CC0
:103EA0009354945C945C945C74647364B46CAF4B92
:103EB000525C1575157515751575167D3685946CDE
:103EC000D14BD14BB043B043F14B535C32545354BC
:103ED0007354535432547354D564D564F564F55C0B
:103EE000F5641565F564F564F56415651665166584
:103EF0001565156515651565366D366D366D366D4E
:103F0000366D566D566D566D566D566D566D566DB9
:103F1000376D376D376D376D3675566D366D367555
:103F200016751EB7735C357D6E3B31543575557D06
:103F300035751575F574167DD574D995FDBE1EBF02
:103F4000367D1575156D156D35751575B46C326446
:103F5000945CB45CB454B45CB45CB45CB45CB45C09
:103F6000B45CB45C9354945CB45CB45C7354D45C43
:103F7000566D9454B45C577DBCB69CB69CBEF5841B
:103F8000D0635AB65BB6D9A53BAE588DB56CB45C60
:103F9000735C935CB364525C5264F0535264516C32
:103FA00011646E4B7364745CF66CF66CD56CF66CD5
:103FB000F574F67C7BA63675F56C1575F56CD88DA9
:103FC000977D535C945C945C945CD56C32540E3356
:103FD0009364B464945C945C945C945C945CB45C12
:103FE000B45C735494649464B5740E3B8F4B0C337F
:103FF000F47415751575F574F574F574F57CF57430
:10400000F14BD14BD14BD14BD14B32543254535451
:10401000535432543254945CD564D564D55CD55C29
:10402000D55CF564F564F564F5641565166516658B
:10403000156515651565F564166D366D366D366D4D
:10404000366D566D566D566D566D566D566D566D78
:10405000376D376D376D376D3675566D566D3675F4
:10406000F574367DCC2A6E431054B36C3575557D8E
:10407000F56C577D367537751775377DDDB61B9E28
:10408000D56C3675356D56753675367D0D3B2E43C0
:10409000735C945CB55C935CB45CB45CB45CB45C21
:1040A000B45CB45C7354945CB45C9354945C366DAF
:1040B0005775945C7464B88D7BAE9CB6B89DB05B4C
:1040C00097953AA6B895F574F67454649564955C22
:1040D000945C7354B043736C1164726C5164716C72
:1040E0008A324922735CB564D66CD66CD674D674A9
:1040F0007464578D1EBFB885156DF56C1675B46464
:10410000935CB4645454B564166D7B9E4A1AD053C4
:10411000BCA6F56CB464945C945C945C945CB45CF4
:10412000945CD564946416751BA66B2A978D1CB796
:10413000357D1575D56CF9951A96D574167D16755D
:10414000D14BD14BB14BB14BD14B1254335C535C7F
:10415000535C12543254B45CF564D55CD55CD55CC8
:10416000D55CF55CF55CF55C155D155D3565156533
:10417000156515651565F5641565166D366D366D35
:10418000566D366D366D366D566D566D366D366DB7
:10419000366D376D366D566D566D356D5675156DC0
:1041A000777D1254535C367DDCAE567D3575F56CEB
:1041B0007785FDB61675576D576DF66C377DD56CE6
:1041C000166DD4641675157573640D3B525C3A9E7A
:1041D00094649564945CB45C945C945C945C945C2E
:1041E0007354945C166D1A8E7775945C945C945C31
:1041F000735CB45C735C1575968D558DF163F163DA
:10420000F574367DB46C7364745C745C745C946433
:1042100093543254D14B5364325C35857AAE199E37
:104220007AAE736CD14BB56CF674D674946C788D91
:104230005BAE5BAEBCB6978D1575156DD45CD46462
:10424000735C735C745C94649464F6742F3BD56CFB
:10425000B564945C945C945CB45CB45C945C945C75
:1042600097759C9EF98D9464577D125CB46CB46C08
:10427000156DF56CD5745BAEDDB6B56C1675F56C69
:10428000D14BB14BB043D14BD14B335C535C535406
:1042900032545354945CB464F564D55CD55CB55C1D
:1042A000B45CD55CD564F564155D155D3565156543
:1042B000156515651565156516651665166D366DFA
:1042C000576D366D366D366D566D5675366D366D6D
:1042D000366D366D366D566D567535751575F56CD2
:1042E000F14BB464577D367DF56C1675F674F67433
:1042F000778D5EC7B88DF56C57753775F674567542
:10430000366DF56CD56CF98DF995CC32D56C1A9665
:10431000745C9564945CB45C945C945CB45C166D61
:10432000B87DB464F98D9B9E7775B45C945C945CA5
:10433000945C9454945C93641475EF53F05B736CC9
:10434000935C945C9464935C745C745C735C745C68
:1043500053543254735C335436755AA6F99D9BB648
:104360001DBF7BAEFDBE778DB564F674B56C9CAE9B
:10437000BCB61EC7D99D1164D57C7BA67A967A9669
:10438000945C945C946494649464535CB043535C14
:104390009464945C945C945CB45CB45C945CB45C35
:1043A000F9855B96F98D9464B464735CD56C16756D
:1043B0007364BCAEBDB63BA6DCBEF674D56C167598
:1043C000D14BD14BD14BB14B4F3BD14BB143B04310
:1043D000B043D14B945CD564F564F564D55CD55C91
:1043E000D55CD55CF564F564155D355D355D1565A9
:1043F00015651565156515651565166D166D366DB2
:10440000566D366D366D366D366D366D566D566D34
:10441000366D37751675156D3675567D525CF14BD8
:10442000F56C36753675156D778594645BA6FEBEA2
:10443000DCB69BB6978D167D1675B56C3675156D09
:104440007775D464735C73647364B043735C946411
:10445000945C945C945C945C945C945CB4645B96B3
:104460009C9EF98D945C945CB45C945C945C945CCC
:10447000945C945C945C93647264CB32115C73645E
:10448000945C945C945C945C945C945C945C735CCD
:104490005354945C945C945C735C525CD0535BA604
:1044A0009CAEB895FDBE9BB65775F66CB464988506
:1044B000DDB65BAEA819F163568D3DBFDCA6398E23
:1044C000B464B464946494647464125490439464C3
:1044D000945CB45CB454B45CB45CB45CB45C945CA4
:1044E000B464B464B46453547354945CD56C36753A
:1044F000367DDCB6FDC63AAE8F53736C98853EBFF1
:10450000B14BD14BD14BD14BB14BB0439043D14B7D
:10451000F14B6F3B124CF564F5641565F55CD55CA9
:10452000F55CF55CF55CF55C155D355D355D156537
:1045300015651565156515651565166D166D166D90
:10454000366D366D166D166D366D366D366D566D73
:1045500037751775F674788D9364AB328F4B8F3B3C
:104560001675167536753675157515755BA63FC7C4
:104570009BB6116CD05BF584FEBE7CA61996156DBA
:104580001565B45C9464946CF14B3254945C735C28
:10459000945C945C945C945C945C945CB4641A8EBB
:1045A000D98D166D945C745C945C945C945C945CA2
:1045B00095649564946453644E43ED3AED3294648B
:1045C000945C945C945C945C945CB4647354945C6C
:1045D000945C73547354735C545C73645364525CA2
:1045E000B46C167D1EB7577DD664F56C16753EB754
:1045F000FCB6778DAC3AB05B526C1DB79BA6DCAEB7
:10460000935C735C94649464946470431254167560
:10461000945CB45CB454B45CB45CB45CB45C945C62
:10462000745C945CB464F56C987DB885D46CF36C60
:10463000936C39A63DCF106C292AD474BCAEDDB67C
:10464000D14BD14BF14BD14BB14BD14BF14B115421
:104650001254124C903B945CB45CD55CF554F55C00
:10466000D55CD55CF55CF65C155D155D155D155D7D
:10467000366DF564F564F564F564156516651665C3
:104680003665366D366D166D366D366D366D366D3A
:10469000366D166DF66CB88D9885315C5AA67785A7
:1046A000156D3675567D567D367DB56CD9957BAECC
:1046B0009CBEA821116CD89DFEBE9CAE5B9E156D64
:1046C000566DB464946453646F3B9043735C935C25
:1046D000945CB454B45C945C945C945C945C735C43
:1046E000735C735C945CD564735C945CB45CB45C24
:1046F000945C535C746CF25B3AAEFEBED56C956410
:10470000735C945C945CB45C3254124C735C735470
:104710001254735C745C745C735C735C935C735C68
:10472000535C7364D98D1675F664F56C36759BA66B
:10473000B88DB4743AAE3AAEF05B3685199EB36468
:10474000B464935CB464735CF6749043B564577D51
:10475000945C945C945C945C945C945C945C945CD9
:10476000945C7875D9851A8E3A8E3A96567DF47493
:10477000FCB63DC77AAE1064CF5B0D43F99D9BAE8E
:10478000D14BD14BF14BD14BD14BD153F14B1254B7
:104790001254124C903B5354B45CF55CF554F554F0
:1047A000F55CF55CF55CF55C1555155D155D5665BC
:1047B0005A8E566DD564F564F564156515651565F5
:1047C0001665166D366D166D366D166D166D366D79
:1047D000366D166DF56CD56CF56CD46CF474F56CA7
:1047E000366D367536753675F5743A9E3EBF3EC7E2
:1047F000D47C316CCF634E53DDB6DDAEF98D156DD3
:10480000F564735C9464D04BF14B977D366D945C8A
:10481000945CB454B45C945C945C945C735C945C01
:10482000D5647775B87DF98DB564945C945C945CBF
:10483000945C746432644E53979D5BAEF574935CE4
:10484000B464945C945CB45CD143324CB464124C58
:10485000945C735C745C745C745C745C735CB46472
:10486000F564D564F564F56CF664F56CD56415757E
:10487000D46CF995FDBEBCBEDCBEF1639374936C41
:10488000935C166D94647464D66CD14B545C746400
:10489000B45C945C945C945C945C945C945CB45C58
:1048A000745CD9855B96B985B885156D935CB45CED
:1048B0005A9EB78DD474778DBBB69BB6EC3AD89D13
:1048C000F253B143D14BD14BD253F253F253125462
:1048D0001254124CF14BB143F564F55C155D155D56
:1048E000155D155D1555F554F55C155D165D776D17
:1048F0001A8E1665F564F56415651565F564F5643D
:104900001565166D366D166D366D15651565166D6A
:10491000166D1665366D366D36753575F56C3675F2
:10492000366D366D367536751575F88DF88D55758D
:10493000F474BBBEBBBED484F67C5785D46C36758C
:10494000B464525C735C77853254B464945CB45C38
:10495000945CB454B45C945C945C945C945C166D0C
:10496000F98D5B965B96B885745C935C935C935C05
:10497000B35C525C1164AB424611F47C5A9E977D45
:10498000945C735CB45C735C3254945C5354945C7C
:10499000735C945C945C935C945C945CB45CF56430
:1049A000F664166D1665F664F664F564F56C367596
:1049B000F46C1996FDBE7ECF3AAEA8199053D57C03
:1049C000D46C9BA61A96535C535C33549464745C09
:1049D000945C945C945C945C945CB45C945C735460
:1049E000B87DDDA67C9EF56C935C735C566DD45CE3
:1049F000935C935CD46C3EBF1DBFDCBE1AAEB05B53
:104A0000335C91439043D24BD253F2531254F24B46
:104A1000F24BF24B124C903BD45C365D365D155533
:104A2000F55CF55CF55CF55C155D155D155DF55C9B
:104A3000F564D45CF564F564F5641565F564F564B6
:104A400015651665166D166D366D366D166D166D1F
:104A5000166D16651665366D156D56755675366D7F
:104A6000366D366D156D3675367536753675356D30
:104A70009BA63EC7FDC61ECFEE421685367D167537
:104A80003996F56C74642F3B735CB464B45CB45CAD
:104A9000945CB454B45C945C945C945C945C166DCB
:104AA000DDA63A96B87D166D7354935CB364725C60
:104AB000515CCF53D89D19AE3685FDBEDDAE1EAF1D
:104AC0003A96B45C5354735C735C945C945C735C12
:104AD0007354945C945C945CB45C945CB55CF664D4
:104AE000166DF664F66C166DF664166D156D3675FA
:104AF00035751575B78D5AA6FDBEB053D99DDDB677
:104B0000568DF895399E9364166DF56C745C945CC3
:104B1000B45C745CB45C7454B45C945C945CF66493
:104B20005B8E5B8E1A86B45CD564D985777DD46440
:104B3000935CD464F14BBCAE1EBFFDC61274C92198
:104B40007464F24B70439143B243D34BD353D2536B
:104B5000F24B124C124CD143334C3665355D355D0A
:104B6000165D165DF65CF65C155DF55CF55CF55C56
:104B7000D45CD564F564F564F564F564F564F564B6
:104B8000F56415651565166D366D366D366D366DC9
:104B9000166D166D166D166D366D366D366D366D7D
:104BA000366D366D366D566D566D566D366D777544
:104BB000B88D1EBFBDBEFAAD0B32F163978D978DD8
:104BC0009AA6D88D535C577DD55CB45C945C945C9C
:104BD000B55C94547354935C945C945CF5645B96FC
:104BE0009C9E5B96945C945C777D97859264EF5372
:104BF0002C3B768DFCBE5AAE1EBF3EBF9885978576
:104C0000166D945C945C735C3254945C935493542E
:104C10009354945C9354945C945C945CD45C15655C
:104C2000156D1565F564F664F66C166D166D366DCA
:104C3000356DF46C93643DBFFDB65BA67CAE7BAE78
:104C400055859695D795D46C935C7454D55C735CFC
:104C5000735CD564B464945C7354B45CB45CD56424
:104C60003A8E3A869775B454577D988D325C735C52
:104C7000B46CB04B0D33B464B885BCBE9CBE6F53EE
:104C80009464535CD14B7043B143B24BD24BF2535B
:104C9000F24BF24BD24B1244F13B355D355D565D24
:104CA000565D365D165DF654155DF55CD55CF55CBC
:104CB000D564F564F564F564F564F564F564D5646C
:104CC000F564F564F5641565166D366D366D366DF3
:104CD000166D166D166D366D366D366D366D366D1C
:104CE000366D366D366D566D566D566D366D567524
:104CF0003675167D7BAE9DBEF26B9CB6BCB6357D1F
:104D0000F895D895535C9464B45C735C935C945C44
:104D10007354945CB45C945C945C945CB87D7B9EAE
:104D20007B96F985945C987DFDAEDCB6F47C8F5360
:104D30002D4B3AAE9795978DDCB61EBFD574946413
:104D4000735CB464735C5354B464945C945CB45CFE
:104D5000B45CB45CB45CB45CB45CD45CF564166DF7
:104D6000156DF564F564F664166DF66CF56CF56C0E
:104D7000156D156DF46C1CB71EBF5BA63BA6FDBE82
:104D8000568DF3843585736C9364735C93645264BD
:104D900094645B9E1A96F56C5775B45C945C945C55
:104DA000156DF5649354935C946494647364115426
:104DB0002E339043735C525CF98DFDB6FDBEDCB6BC
:104DC0009364735C735C1254F24BD24BF24BF14B15
:104DD0001254D253B14B124CB13BB454145D355DF7
:104DE000565D565D365D1555F55CF554D55CF55C44
:104DF000F564F564F564F564F564F564F564D5640B
:104E0000F564F564F56415651565166D166D166D1A
:104E1000166D166D366D366D366D366D366D366DBA
:104E2000366D366D366D566D566D366D156D567523
:104E3000F56CF56CFEBE1EBFFEC69CB67BAE5585FE
:104E4000968D189E325C7364735C9364946493646F
:104E5000B885F56CB464945C945C945C166D3A9679
:104E60001A8E945C735C3675BCAE7BAE368D1ECFED
:104E700057957374F574F5747AA61A9E125C936450
:104E8000B46453543254B464B464945CB45CB45C9D
:104E9000D45CD45CD564F564F564166D166D156547
:104EA000F564F564F564F664F66CF66CF564F56C1F
:104EB000F564F56C156D9785F995F674F67CD895C3
:104EC0003585D27C758D726C115C936C5785F9A514
:104ED0009795BCB6FDB65A9EB985B45C9354B45C44
:104EE000B45CB464535C9464735C6F438C22ED22B5
:104EF000114C935C945C735CF98D3EB75FBFF56CAD
:104F0000777D15751575D46CB464745C745C324C23
:104F1000F253D25B7053125CB1439354D45CD45CB3
:104F20003665365D365D365D365DF55CD55CF564BF
:104F3000D564D45C945C935493549354B45CF564FA
:104F4000D564F564156D156D1565156515651565E3
:104F50001665166D366D366D366D366D366D366D81
:104F600015651565166D366D166D156D156D566DDD
:104F700036751675DDAE3EBFFA9DB89DD89DD374CB
:104F80003485968D7364946C9364B46CD46C15758D
:104F90001DB79BA6F98D5775945C735CB45C945CEB
:104FA000945CD464B464525C946C4F4B568D9BB645
:104FB0003685D574F46CF574B78DD474CC2A525CF4
:104FC000735C5354735C945C945C945C945CB45CCC
:104FD000D564D564F564F564F564F564F564F56449
:104FE000F564F564F564F564D664D664F66CF66C25
:104FF000156D156D356DF46C15751675BCAE778D28
:10500000F795748D338579AE6E43ED3216855BB6B8
:10501000FCC639A61DBF7AA61675B45C9354945489
:10502000B35CD46CB88DF14B4E3BAC2A1254B45CDB
:10503000B45C745CB5647354F564F564F564B45C95
:10504000968555755675777D577D577D567576854E
:105050003AAE5BBEFAB53695D05B525CB464B364CD
:10506000B464D45CD45CD454F55C15651565D46423
:10507000324CF143F143F143F143F143124C935469
:10508000D45C156D15651565156515651565F564B3
:105090001565166D15651565156515651565156537
:1050A000F664F664F664166516651665356D366D3C
:1050B0003675366DF564977DF464D89D39AEF79DED
:1050C0003385958D5264D04B9364BCAE9BA69BA652
:1050D000BCB6FCB6BCAE3675735C945C945C945CF8
:1050E000935CB464936493646F439364D464F46C8A
:1050F0003575156DF574D474B36C926C9264935CD1
:10510000735C945C945C945C945C945CB45CB45C00
:10511000D464D45CD564F564F564F564F564D56451
:10512000D564D564D564D564D664D664D664F66C8B
:10513000F66C156D156D156DD46437755BA69BAE59
:105140007585137D7585399E9364D5741BA69CBEA9
:10515000BCC6F8A5F37C157D935CB45C7354B45C59
:105160007254D46C978DCC324E437364945C9454D7
:105170007454945C945CB55CB55CD564945C3B8E73
:105180009785567D777D577D367D3675567D7AA617
:10519000DBC6DCD6BCDE7BCEBBC6B79D936C52644F
:1051A000535C3254114C11441144D454D454734CB4
:1051B000D143F143F14BF24BF143F143F143F14B56
:1051C000114C945CF564F564F564F564F564F5647C
:1051D000F564F564F564F564F564F564F564F56407
:1051E000F564F564F564D564F564166D156D356D7B
:1051F000366D5675366D356D777D9BB6979D558DA1
:10520000758DD7953AA6B053CC325AA6FDBEFCBEDA
:105210007BAE3DBFF995735C745CB45C945C946444
:105220005675BCA68B2A2E3BB46C156DF464556D77
:10523000166D156D156DF574B36492647264325415
:10524000945C945CB45C945C945C945CB45CD45C5E
:10525000D45CB45CD45CD564F564F564D564D45C8A
:10526000D55CD564D564D564D564D564D664D6647C
:10527000F564F56C156DF56CB4649464F67415758D
:10528000F4741896557D93649464577D3BA65CAE88
:1052900097950C4329227264935C945CB4549354A4
:1052A000B35C315C8B2A0D439264B364945C955C6F
:1052B00094549454945C7454945C945CB45CD98518
:1052C0009785577D577D567D7785367DF995BBB699
:1052D000DCD6BBE6BBE6BCDEDBD6BBCE9BBEB47C7D
:1052E0004F438C22D04BD04BD03BF03B3144F13B71
:1052F000D143F253F253F24BF14BF14B124CF14BC1
:10530000D143D143745CB564B564D564D564D564C8
:10531000D564D564F664F6641665F564F664F564E0
:10532000F664F664F664F664F664F564156D366D3D
:10533000366D366D156D366D156D5BA6BCB6936C0E
:1053400039A65685F574D4743AA67BAE3EC73DC7E0
:10535000936C2D4352649464945C945CB45C525C92
:10536000B364F15B0D3BD4743575356D35651565EA
:105370001565156D1575736CD4749264104CB46416
:10538000945C945C945C945C945C945CB45CB45C5D
:10539000B45CB45CB45CB45C166D166DD564D45C5E
:1053A000D564D564D564D564D564D564D564D56435
:1053B000F564F564D564B464B464B464D564D46449
:1053C000B88D7A9E35759464745C745C746494646E
:1053D000325C4D436E4B536C7364945CB45CB45458
:1053E000114C1154199ED0539364735C945C955C7A
:1053F000B45CB45CB45CB45CB45CB45C945C935476
:105400007785377D367D367D577D367D3A9EDBBE8E
:10541000DCD6DBEEBBEEBCE6FBDEDBD6DBCE5FCF65
:105420005364C9116B22D04B8F43D03BD03BF13B2F
:10543000124CF353F25BF253F14BF14BF14BF14B46
:10544000D14BB143B143745CB56CB564D564D564DC
:10545000D564D55CD55CF664F664D564F664F56411
:10546000F564F564F564F564F564F564F564156D4B
:10547000166D166D166DD564935CB464B36C399E6D
:10548000F88D1575B364D46CF5741996F8958F4B37
:1054900049228E53936C735C945C945C735C93644C
:1054A0006E43E919D05BD3747675566D366D166D03
:1054B000356DF4649264B2747274EF4BD35C9354A0
:1054C000945C945C945C945C945C945C945CB45C3C
:1054D000B45CB45C945CD45C366DF564D45CB45C50
:1054E000B55CB55CB55CB55CD45CD45CD45CD45CB8
:1054F000F564D564D564B564B45C5775166D7354A2
:10550000B464F98D735C7354735C945C945C9354D1
:10551000935C315C8F4B1264736C7464735C903B6E
:10552000324C9464367D9464935C945CB45CB45C5B
:10553000B45CB45CB45CB45CB45C935C9354B45C35
:105540007785367D367D367D367D567D5AA6DCBE26
:10555000FCD6FCDEDBE6DCE6DCDEFCDE1DD71DCFA8
:105560003FC7946C0A12CD2AF14BD143B03B324C69
:105570003254335413541254F2531254F253F14B25
:10558000F14BF24BB14BD14B945CB564B564B5644F
:10559000D55CB55CF6647875376DD564D564D56433
:1055A000D564D564F564F564F564F564D564F56C8B
:1055B000F66CF56CD564B45CF56CF56CB4645A9E0D
:1055C0009BA6B464B464D46CB46C7364936CB36C15
:1055D0004E4BAF5B32649364735CB45C725CF04BB3
:1055E000F57C7AA6B36C557D146D356D156DF56C33
:1055F000D56C9264137511646E4B3264B464945C20
:10560000945C945C945C945C945C945C945CB45CFA
:10561000B45CB45CB45C945CB45CB45CB45CB45C2A
:10562000B45CB45CB45CB45CB45CB45CD45CB45CDA
:10563000D45CD45CB45C945C366DD985F56C7354E1
:10564000945CB45C945C735C745C945C945C745C1B
:10565000735C936C96959053B053AF4BAF43945497
:10566000B45C945C7464B564B45C9354B45C935C53
:10567000945C945C945CB45CB45C7454366D977DBB
:10568000F6749464F674367D167D367D3AA6BCBEFB
:10569000FCCEDCD6DCDEFCDE1DDFFCD65EDF3ED7DA
:1056A000FEC6DDB64F3B4B12CD2AF14BB14B125427
:1056B0005354535433541254D14BD14BB143B04390
:1056C0009043B143B14B7043F24B955CB55CB5640C
:1056D000B55CB55CD564366DF664B55CF564F664AE
:1056E000D564D564D564D464D564D564D564D564F3
:1056F000F56CD564B464F564F98DF56CB4647364C9
:105700001575735CB464B464B4649364B36CF4747A
:10571000B3748F5B1164936C9364B043F04BD46C9F
:10572000936CB46CF46C356D556DD464F46C946CFE
:10573000B36CF374916C51648F5353645464745C10
:10574000945C945C945C945C945C945C945CB45CB9
:10575000B45CB45C945CB45CB45C945CB45CB45C09
:10576000B45CB45CB45CB45CB45CB45CB45CB45CB9
:10577000B45CB45C945C945C945C735C945C945C8A
:10578000735C945C735C735C945C945C745C745C3C
:105790009364926CF8A5E921C8198E4B9264B35CAE
:1057A0007454B564545C9464945C945C935C7364CA
:1057B000935C935C945CB45CB45CB45C7775567534
:1057C000C9116701C9110E3B167D5785F99DFEC6AB
:1057D000DBC63CD7FCD6FCD6FDD6FDD61DD73ED7C2
:1057E0003ECF1DC79885EB09EA09EE2A914BB14BD4
:1057F0001254325C325C3254F14BD14BB043904383
:105800000E330E3391439143903B745C745C945C13
:10581000B55CB55CB55CB55CB55CB55CB55CB55C00
:10582000D55CD55CD45CD45CD45CD45CD564D564E4
:10583000D564B564945CF66C5675B464B4649464D1
:10584000B4649464B464B464B464D46CB46CB37479
:10585000568D7ABEAB422D438E4BB3641575D46C16
:10586000F574F5741575566D356D146DF474736CAF
:10587000147DB374B274105C8F53D57CF77C95643F
:10588000945C945C945C945C945C945C945CB45C78
:10589000B45CB45CB45CB45CB45CB45CB45CB45C88
:1058A000B45CB45CB45CB45CB45CB45CB45CB45C78
:1058B000B45CB45C945C945C945C945CB45C945C08
:1058C000945C7354945CB464945C735CB564745C71
:1058D000D04B4E439BB68B328F53F05310545154E0
:1058E000B4647464546453649464935C525C105460
:1058F0001154B364935CB45C945C945CB45CB45C2D
:10590000C9198809C9116809A8115364B995DEC677
:10591000DCC63CCF1CCF3DD71DD7FDCE1ED73ED712
:105920003DCF3EC71B9EEB092C12CA0168012B22FA
:10593000704B115C325C125C125490432E339043D6
:10594000703B4F3B4F3B7043703BB1437454945C8E
:10595000B55CB55CB55CB55CB55CB55CB55CB55CBF
:10596000B55CB55CD45CD45CD45CB45CB45CB4644D
:10597000B464945C945C945C935C935C945C946479
:10598000B4649464B564B564D464D464D46CD474DD
:10599000326C159546192A2A105C347515753575C3
:1059A000F574F57416753675356D1465725CF4749E
:1059B000726C9374F9A5B79DCF5B9CBE1BAE7885C6
:1059C000945C735C945C945C945C945C945CB45C58
:1059D000B45CB45CB45CB45CB45CB45CB45CB45C47
:1059E000B45CB45CB45CB45CB45CB45CB45CB45C37
:1059F000B45CB45C945C945C945C945C735C945C08
:105A000073547354735C945C945C3254B043F143AC
:105A1000735C167DDDBE578D5264725CCF43D04BF4
:105A2000AF4B3264F5849474F15B315CAF4BF0534F
:105A3000AF439364935CB45C945C945C945CB45C9E
:105A4000A91188098809880988116809A919EE42ED
:105A5000D063DBC63DCF3DCF1ED71DCF3ED73ED74F
:105A60003DD75ECF1775AE1A0B022C0ACA09E700A4
:105A700027090A2A7053D14B1254D04B6F3B125452
:105A80003254D14B703B4F33903BB143D1437454AC
:105A9000945CB564B55CB55CB55CB55CB55CB55C97
:105AA000B45CB45CB45CB45CB45CB45CB45C945C96
:105AB000945C945C945C945C945C745C745CB45C86
:105AC000B45CB45CB464D464B45C935C11548F4B28
:105AD000768DDCBEEC42B37CCF5B3054725CF474E8
